{
  "_format": "hh-sol-artifact-1",
  "contractName": "ERC1155",
  "sourceName": "contracts/ETHVJTI1155.sol",
  "abi": [
    {
      "inputs": [
        {
          "internalType": "string",
          "name": "uri_",
          "type": "string"
        }
      ],
      "stateMutability": "nonpayable",
      "type": "constructor"
    },
    {
      "anonymous": false,
      "inputs": [
        {
          "indexed": true,
          "internalType": "address",
          "name": "account",
          "type": "address"
        },
        {
          "indexed": true,
          "internalType": "address",
          "name": "operator",
          "type": "address"
        },
        {
          "indexed": false,
          "internalType": "bool",
          "name": "approved",
          "type": "bool"
        }
      ],
      "name": "ApprovalForAll",
      "type": "event"
    },
    {
      "anonymous": false,
      "inputs": [
        {
          "indexed": true,
          "internalType": "address",
          "name": "operator",
          "type": "address"
        },
        {
          "indexed": true,
          "internalType": "address",
          "name": "from",
          "type": "address"
        },
        {
          "indexed": true,
          "internalType": "address",
          "name": "to",
          "type": "address"
        },
        {
          "indexed": false,
          "internalType": "uint256[]",
          "name": "ids",
          "type": "uint256[]"
        },
        {
          "indexed": false,
          "internalType": "uint256[]",
          "name": "values",
          "type": "uint256[]"
        }
      ],
      "name": "TransferBatch",
      "type": "event"
    },
    {
      "anonymous": false,
      "inputs": [
        {
          "indexed": true,
          "internalType": "address",
          "name": "operator",
          "type": "address"
        },
        {
          "indexed": true,
          "internalType": "address",
          "name": "from",
          "type": "address"
        },
        {
          "indexed": true,
          "internalType": "address",
          "name": "to",
          "type": "address"
        },
        {
          "indexed": false,
          "internalType": "uint256",
          "name": "id",
          "type": "uint256"
        },
        {
          "indexed": false,
          "internalType": "uint256",
          "name": "value",
          "type": "uint256"
        }
      ],
      "name": "TransferSingle",
      "type": "event"
    },
    {
      "anonymous": false,
      "inputs": [
        {
          "indexed": false,
          "internalType": "string",
          "name": "value",
          "type": "string"
        },
        {
          "indexed": true,
          "internalType": "uint256",
          "name": "id",
          "type": "uint256"
        }
      ],
      "name": "URI",
      "type": "event"
    },
    {
      "inputs": [
        {
          "internalType": "address",
          "name": "account",
          "type": "address"
        },
        {
          "internalType": "uint256",
          "name": "id",
          "type": "uint256"
        }
      ],
      "name": "balanceOf",
      "outputs": [
        {
          "internalType": "uint256",
          "name": "",
          "type": "uint256"
        }
      ],
      "stateMutability": "view",
      "type": "function"
    },
    {
      "inputs": [
        {
          "internalType": "address[]",
          "name": "accounts",
          "type": "address[]"
        },
        {
          "internalType": "uint256[]",
          "name": "ids",
          "type": "uint256[]"
        }
      ],
      "name": "balanceOfBatch",
      "outputs": [
        {
          "internalType": "uint256[]",
          "name": "",
          "type": "uint256[]"
        }
      ],
      "stateMutability": "view",
      "type": "function"
    },
    {
      "inputs": [],
      "name": "getTrustedForwarder",
      "outputs": [
        {
          "internalType": "address",
          "name": "forwarder",
          "type": "address"
        }
      ],
      "stateMutability": "view",
      "type": "function"
    },
    {
      "inputs": [
        {
          "internalType": "address",
          "name": "account",
          "type": "address"
        },
        {
          "internalType": "address",
          "name": "operator",
          "type": "address"
        }
      ],
      "name": "isApprovedForAll",
      "outputs": [
        {
          "internalType": "bool",
          "name": "",
          "type": "bool"
        }
      ],
      "stateMutability": "view",
      "type": "function"
    },
    {
      "inputs": [
        {
          "internalType": "address",
          "name": "forwarder",
          "type": "address"
        }
      ],
      "name": "isTrustedForwarder",
      "outputs": [
        {
          "internalType": "bool",
          "name": "",
          "type": "bool"
        }
      ],
      "stateMutability": "view",
      "type": "function"
    },
    {
      "inputs": [
        {
          "internalType": "address",
          "name": "from",
          "type": "address"
        },
        {
          "internalType": "address",
          "name": "to",
          "type": "address"
        },
        {
          "internalType": "uint256[]",
          "name": "ids",
          "type": "uint256[]"
        },
        {
          "internalType": "uint256[]",
          "name": "amounts",
          "type": "uint256[]"
        },
        {
          "internalType": "bytes",
          "name": "data",
          "type": "bytes"
        }
      ],
      "name": "safeBatchTransferFrom",
      "outputs": [],
      "stateMutability": "nonpayable",
      "type": "function"
    },
    {
      "inputs": [
        {
          "internalType": "address",
          "name": "from",
          "type": "address"
        },
        {
          "internalType": "address",
          "name": "to",
          "type": "address"
        },
        {
          "internalType": "uint256",
          "name": "id",
          "type": "uint256"
        },
        {
          "internalType": "uint256",
          "name": "amount",
          "type": "uint256"
        },
        {
          "internalType": "bytes",
          "name": "data",
          "type": "bytes"
        }
      ],
      "name": "safeTransferFrom",
      "outputs": [],
      "stateMutability": "nonpayable",
      "type": "function"
    },
    {
      "inputs": [
        {
          "internalType": "address",
          "name": "operator",
          "type": "address"
        },
        {
          "internalType": "bool",
          "name": "approved",
          "type": "bool"
        }
      ],
      "name": "setApprovalForAll",
      "outputs": [],
      "stateMutability": "nonpayable",
      "type": "function"
    },
    {
      "inputs": [
        {
          "internalType": "bytes4",
          "name": "interfaceId",
          "type": "bytes4"
        }
      ],
      "name": "supportsInterface",
      "outputs": [
        {
          "internalType": "bool",
          "name": "",
          "type": "bool"
        }
      ],
      "stateMutability": "view",
      "type": "function"
    },
    {
      "inputs": [
        {
          "internalType": "uint256",
          "name": "",
          "type": "uint256"
        }
      ],
      "name": "uri",
      "outputs": [
        {
          "internalType": "string",
          "name": "",
          "type": "string"
        }
      ],
      "stateMutability": "view",
      "type": "function"
    }
  ],
  "bytecode": "0x60806040523480156200001157600080fd5b50604051620019b9380380620019b9833981810160405260208110156200003757600080fd5b81019080805160405193929190846401000000008211156200005857600080fd5b9083019060208201858111156200006e57600080fd5b82516401000000008111828201881017156200008957600080fd5b82525081516020918201929091019080838360005b83811015620000b85781810151838201526020016200009e565b50505050905090810190601f168015620000e65780820380516001836020036101000a031916815260200191505b50604052506200010191506301ffc9a760e01b905062000137565b6200010c81620001bf565b6200011e636cdb3d1360e11b62000137565b620001306303a24d0760e21b62000137565b5062000284565b6001600160e01b0319808216141562000197576040805162461bcd60e51b815260206004820152601c60248201527f4552433136353a20696e76616c696420696e7465726661636520696400000000604482015290519081900360640190fd5b6001600160e01b0319166000908152600160208190526040909120805460ff19169091179055565b8051620001d4906004906020840190620001d8565b5050565b828054600181600116156101000203166002900490600052602060002090601f0160209004810192826200021057600085556200025b565b82601f106200022b57805160ff19168380011785556200025b565b828001600101855582156200025b579182015b828111156200025b5782518255916020019190600101906200023e565b50620002699291506200026d565b5090565b5b808211156200026957600081556001016200026e565b61172580620002946000396000f3fe608060405234801561001057600080fd5b506004361061009d5760003560e01c8063572b6c0511610066578063572b6c05146104e3578063a22cb46514610509578063ce1b815f14610537578063e985e9c51461055b578063f242432a146105895761009d565b8062fdd58e146100a257806301ffc9a7146100e05780630e89341c1461011b5780632eb2c2d6146101ad5780634e1273f414610370575b600080fd5b6100ce600480360360408110156100b857600080fd5b506001600160a01b038135169060200135610652565b60408051918252519081900360200190f35b610107600480360360208110156100f657600080fd5b50356001600160e01b0319166106c1565b604080519115158252519081900360200190f35b6101386004803603602081101561013157600080fd5b50356106e0565b6040805160208082528351818301528351919283929083019185019080838360005b8381101561017257818101518382015260200161015a565b50505050905090810190601f16801561019f5780820380516001836020036101000a031916815260200191505b509250505060405180910390f35b61036e600480360360a08110156101c357600080fd5b6001600160a01b038235811692602081013590911691810190606081016040820135600160201b8111156101f657600080fd5b82018360208201111561020857600080fd5b803590602001918460208302840111600160201b8311171561022957600080fd5b9190808060200260200160405190810160405280939291908181526020018383602002808284376000920191909152509295949360208101935035915050600160201b81111561027857600080fd5b82018360208201111561028a57600080fd5b803590602001918460208302840111600160201b831117156102ab57600080fd5b9190808060200260200160405190810160405280939291908181526020018383602002808284376000920191909152509295949360208101935035915050600160201b8111156102fa57600080fd5b82018360208201111561030c57600080fd5b803590602001918460018302840111600160201b8311171561032d57600080fd5b91908080601f016020809104026020016040519081016040528093929190818152602001838380828437600092019190915250929550610778945050505050565b005b6104936004803603604081101561038657600080fd5b810190602081018135600160201b8111156103a057600080fd5b8201836020820111156103b257600080fd5b803590602001918460208302840111600160201b831117156103d357600080fd5b9190808060200260200160405190810160405280939291908181526020018383602002808284376000920191909152509295949360208101935035915050600160201b81111561042257600080fd5b82018360208201111561043457600080fd5b803590602001918460208302840111600160201b8311171561045557600080fd5b919080806020026020016040519081016040528093929190818152602001838360200280828437600092019190915250929550610a7b945050505050565b60408051602080825283518183015283519192839290830191858101910280838360005b838110156104cf5781810151838201526020016104b7565b505050509050019250505060405180910390f35b610107600480360360208110156104f957600080fd5b50356001600160a01b0316610bf9565b61036e6004803603604081101561051f57600080fd5b506001600160a01b0381351690602001351515610c0d565b61053f610cfc565b604080516001600160a01b039092168252519081900360200190f35b6101076004803603604081101561057157600080fd5b506001600160a01b0381358116916020013516610d0c565b61036e600480360360a081101561059f57600080fd5b6001600160a01b03823581169260208101359091169160408201359160608101359181019060a081016080820135600160201b8111156105de57600080fd5b8201836020820111156105f057600080fd5b803590602001918460018302840111600160201b8311171561061157600080fd5b91908080601f016020809104026020016040519081016040528093929190818152602001838380828437600092019190915250929550610d3a945050505050565b60006001600160a01b0383166106995760405162461bcd60e51b815260040180806020018281038252602b815260200180611570602b913960400191505060405180910390fd5b5060009081526002602090815260408083206001600160a01b03949094168352929052205490565b6001600160e01b03191660009081526001602052604090205460ff1690565b60048054604080516020601f600260001961010060018816150201909516949094049384018190048102820181019092528281526060939092909183018282801561076c5780601f106107415761010080835404028352916020019161076c565b820191906000526020600020905b81548152906001019060200180831161074f57829003601f168201915b50505050509050919050565b81518351146107b85760405162461bcd60e51b81526004018080602001828103825260288152602001806116c86028913960400191505060405180910390fd5b6001600160a01b0384166107fd5760405162461bcd60e51b81526004018080602001828103825260258152602001806115f56025913960400191505060405180910390fd5b610805610f05565b6001600160a01b0316856001600160a01b0316148061083057506108308561082b610f05565b610d0c565b61086b5760405162461bcd60e51b815260040180806020018281038252603281526020018061161a6032913960400191505060405180910390fd5b6000610875610f05565b9050610885818787878787610a73565b60005b845181101561098b57600085828151811061089f57fe5b6020026020010151905060008583815181106108b757fe5b60200260200101519050610924816040518060600160405280602a815260200161164c602a91396002600086815260200190815260200160002060008d6001600160a01b03166001600160a01b0316815260200190815260200160002054610f359092919063ffffffff16565b60008381526002602090815260408083206001600160a01b038e811685529252808320939093558a168152205461095b9082610fcc565b60009283526002602090815260408085206001600160a01b038c1686529091529092209190915550600101610888565b50846001600160a01b0316866001600160a01b0316826001600160a01b03167f4a39dc06d4c0dbc64b70af90fd698a233a518aa5d07e595d983b8c0526c8f7fb8787604051808060200180602001838103835285818151815260200191508051906020019060200280838360005b83811015610a115781810151838201526020016109f9565b50505050905001838103825284818151815260200191508051906020019060200280838360005b83811015610a50578181015183820152602001610a38565b5050505090500194505050505060405180910390a4610a7381878787878761102d565b505050505050565b60608151835114610abd5760405162461bcd60e51b815260040180806020018281038252602981526020018061169f6029913960400191505060405180910390fd5b6000835167ffffffffffffffff81118015610ad757600080fd5b50604051908082528060200260200182016040528015610b01578160200160208202803683370190505b50905060005b8451811015610bf15760006001600160a01b0316858281518110610b2757fe5b60200260200101516001600160a01b03161415610b755760405162461bcd60e51b815260040180806020018281038252603181526020018061159b6031913960400191505060405180910390fd5b60026000858381518110610b8557fe5b602002602001015181526020019081526020016000206000868381518110610ba957fe5b60200260200101516001600160a01b03166001600160a01b0316815260200190815260200160002054828281518110610bde57fe5b6020908102919091010152600101610b07565b509392505050565b6000546001600160a01b0390811691161490565b816001600160a01b0316610c1f610f05565b6001600160a01b03161415610c655760405162461bcd60e51b81526004018080602001828103825260298152602001806116766029913960400191505060405180910390fd5b8060036000610c72610f05565b6001600160a01b03908116825260208083019390935260409182016000908120918716808252919093529120805460ff191692151592909217909155610cb6610f05565b6001600160a01b03167f17307eab39ab6107e8899845ad3d59bd9653f200f220920489ca2b5937696c318360405180821515815260200191505060405180910390a35050565b6000546001600160a01b03165b90565b6001600160a01b03918216600090815260036020908152604080832093909416825291909152205460ff1690565b6001600160a01b038416610d7f5760405162461bcd60e51b81526004018080602001828103825260258152602001806115f56025913960400191505060405180910390fd5b610d87610f05565b6001600160a01b0316856001600160a01b03161480610dad5750610dad8561082b610f05565b610de85760405162461bcd60e51b81526004018080602001828103825260298152602001806115cc6029913960400191505060405180910390fd5b6000610df2610f05565b9050610e12818787610e03886112ac565b610e0c886112ac565b87610a73565b610e59836040518060600160405280602a815260200161164c602a913960008781526002602090815260408083206001600160a01b038d1684529091529020549190610f35565b60008581526002602090815260408083206001600160a01b038b81168552925280832093909355871681522054610e909084610fcc565b60008581526002602090815260408083206001600160a01b03808b168086529184529382902094909455805188815291820187905280518a8416938616927fc3d58168c5ae7397731d063d5bbf3d657854427343f4c083240f7aacaa2d0f6292908290030190a4610a738187878787876112f1565b600060143610801590610f1c5750610f1c33610bf9565b15610f30575060131936013560601c610d09565b503390565b60008184841115610fc45760405162461bcd60e51b81526004018080602001828103825283818151815260200191508051906020019080838360005b83811015610f89578181015183820152602001610f71565b50505050905090810190601f168015610fb65780820380516001836020036101000a031916815260200191505b509250505060405180910390fd5b505050900390565b600082820183811015611026576040805162461bcd60e51b815260206004820152601b60248201527f536166654d6174683a206164646974696f6e206f766572666c6f770000000000604482015290519081900360640190fd5b9392505050565b61103f846001600160a01b0316611462565b15610a7357836001600160a01b031663bc197c8187878686866040518663ffffffff1660e01b815260040180866001600160a01b03168152602001856001600160a01b03168152602001806020018060200180602001848103845287818151815260200191508051906020019060200280838360005b838110156110cd5781810151838201526020016110b5565b50505050905001848103835286818151815260200191508051906020019060200280838360005b8381101561110c5781810151838201526020016110f4565b50505050905001848103825285818151815260200191508051906020019080838360005b83811015611148578181015183820152602001611130565b50505050905090810190601f1680156111755780820380516001836020036101000a031916815260200191505b5098505050505050505050602060405180830381600087803b15801561119a57600080fd5b505af19250505080156111bf57506040513d60208110156111ba57600080fd5b505160015b611254576111cb61146e565b806111d6575061121d565b60405162461bcd60e51b8152602060048201818152835160248401528351849391928392604401919085019080838360008315610f89578181015183820152602001610f71565b60405162461bcd60e51b81526004018080602001828103825260348152602001806115146034913960400191505060405180910390fd5b6001600160e01b0319811663bc197c8160e01b146112a35760405162461bcd60e51b81526004018080602001828103825260288152602001806115486028913960400191505060405180910390fd5b50505050505050565b604080516001808252818301909252606091600091906020808301908036833701905050905082816000815181106112e057fe5b602090810291909101015292915050565b611303846001600160a01b0316611462565b15610a7357836001600160a01b031663f23a6e6187878686866040518663ffffffff1660e01b815260040180866001600160a01b03168152602001856001600160a01b0316815260200184815260200183815260200180602001828103825283818151815260200191508051906020019080838360005b8381101561139257818101518382015260200161137a565b50505050905090810190601f1680156113bf5780820380516001836020036101000a031916815260200191505b509650505050505050602060405180830381600087803b1580156113e257600080fd5b505af192505050801561140757506040513d602081101561140257600080fd5b505160015b611413576111cb61146e565b6001600160e01b0319811663f23a6e6160e01b146112a35760405162461bcd60e51b81526004018080602001828103825260288152602001806115486028913960400191505060405180910390fd5b3b151590565b60e01c90565b600060443d101561147e57610d09565b600481823e6308c379a06114928251611468565b1461149c57610d09565b6040513d600319016004823e80513d67ffffffffffffffff81602484011181841117156114cc5750505050610d09565b828401925082519150808211156114e65750505050610d09565b503d830160208284010111156114fe57505050610d09565b601f01601f191681016020016040529150509056fe455243313135353a207472616e7366657220746f206e6f6e2045524331313535526563656976657220696d706c656d656e746572455243313135353a204552433131353552656365697665722072656a656374656420746f6b656e73455243313135353a2062616c616e636520717565727920666f7220746865207a65726f2061646472657373455243313135353a2062617463682062616c616e636520717565727920666f7220746865207a65726f2061646472657373455243313135353a2063616c6c6572206973206e6f74206f776e6572206e6f7220617070726f766564455243313135353a207472616e7366657220746f20746865207a65726f2061646472657373455243313135353a207472616e736665722063616c6c6572206973206e6f74206f776e6572206e6f7220617070726f766564455243313135353a20696e73756666696369656e742062616c616e636520666f72207472616e73666572455243313135353a2073657474696e6720617070726f76616c2073746174757320666f722073656c66455243313135353a206163636f756e747320616e6420696473206c656e677468206d69736d61746368455243313135353a2069647320616e6420616d6f756e7473206c656e677468206d69736d61746368a264697066735822122058b4db0d925a9e5dd6f66524ec8a99d1997bb08074519048b8f6025794868eb064736f6c63430007060033",
  "linkReferences": {},
  "deployedLinkReferences": {}
}