{
  "_format": "hh-sol-artifact-1",
  "contractName": "EthVJTI1155",
  "sourceName": "contracts/ETHVJTI1155.sol",
  "abi": [
    {
      "inputs": [
        {
          "internalType": "string",
          "name": "_symbol",
          "type": "string"
        },
        {
          "internalType": "string",
          "name": "_name",
          "type": "string"
        }
      ],
      "stateMutability": "nonpayable",
      "type": "constructor"
    },
    {
      "anonymous": false,
      "inputs": [
        {
          "indexed": true,
          "internalType": "address",
          "name": "account",
          "type": "address"
        },
        {
          "indexed": true,
          "internalType": "address",
          "name": "operator",
          "type": "address"
        },
        {
          "indexed": false,
          "internalType": "bool",
          "name": "approved",
          "type": "bool"
        }
      ],
      "name": "ApprovalForAll",
      "type": "event"
    },
    {
      "anonymous": false,
      "inputs": [
        {
          "indexed": true,
          "internalType": "address",
          "name": "previousOwner",
          "type": "address"
        },
        {
          "indexed": true,
          "internalType": "address",
          "name": "newOwner",
          "type": "address"
        }
      ],
      "name": "OwnershipTransferred",
      "type": "event"
    },
    {
      "anonymous": false,
      "inputs": [
        {
          "indexed": true,
          "internalType": "address",
          "name": "operator",
          "type": "address"
        },
        {
          "indexed": true,
          "internalType": "address",
          "name": "from",
          "type": "address"
        },
        {
          "indexed": true,
          "internalType": "address",
          "name": "to",
          "type": "address"
        },
        {
          "indexed": false,
          "internalType": "uint256[]",
          "name": "ids",
          "type": "uint256[]"
        },
        {
          "indexed": false,
          "internalType": "uint256[]",
          "name": "values",
          "type": "uint256[]"
        }
      ],
      "name": "TransferBatch",
      "type": "event"
    },
    {
      "anonymous": false,
      "inputs": [
        {
          "indexed": true,
          "internalType": "address",
          "name": "operator",
          "type": "address"
        },
        {
          "indexed": true,
          "internalType": "address",
          "name": "from",
          "type": "address"
        },
        {
          "indexed": true,
          "internalType": "address",
          "name": "to",
          "type": "address"
        },
        {
          "indexed": false,
          "internalType": "uint256",
          "name": "id",
          "type": "uint256"
        },
        {
          "indexed": false,
          "internalType": "uint256",
          "name": "value",
          "type": "uint256"
        }
      ],
      "name": "TransferSingle",
      "type": "event"
    },
    {
      "anonymous": false,
      "inputs": [
        {
          "indexed": false,
          "internalType": "string",
          "name": "value",
          "type": "string"
        },
        {
          "indexed": true,
          "internalType": "uint256",
          "name": "id",
          "type": "uint256"
        }
      ],
      "name": "URI",
      "type": "event"
    },
    {
      "inputs": [
        {
          "internalType": "address",
          "name": "account",
          "type": "address"
        },
        {
          "internalType": "uint256",
          "name": "id",
          "type": "uint256"
        }
      ],
      "name": "balanceOf",
      "outputs": [
        {
          "internalType": "uint256",
          "name": "",
          "type": "uint256"
        }
      ],
      "stateMutability": "view",
      "type": "function"
    },
    {
      "inputs": [
        {
          "internalType": "address[]",
          "name": "accounts",
          "type": "address[]"
        },
        {
          "internalType": "uint256[]",
          "name": "ids",
          "type": "uint256[]"
        }
      ],
      "name": "balanceOfBatch",
      "outputs": [
        {
          "internalType": "uint256[]",
          "name": "",
          "type": "uint256[]"
        }
      ],
      "stateMutability": "view",
      "type": "function"
    },
    {
      "inputs": [
        {
          "internalType": "address",
          "name": "account",
          "type": "address"
        },
        {
          "internalType": "uint256",
          "name": "id",
          "type": "uint256"
        },
        {
          "internalType": "uint256",
          "name": "amount",
          "type": "uint256"
        }
      ],
      "name": "burn",
      "outputs": [],
      "stateMutability": "nonpayable",
      "type": "function"
    },
    {
      "inputs": [],
      "name": "getTrustedForwarder",
      "outputs": [
        {
          "internalType": "address",
          "name": "forwarder",
          "type": "address"
        }
      ],
      "stateMutability": "view",
      "type": "function"
    },
    {
      "inputs": [
        {
          "internalType": "address",
          "name": "account",
          "type": "address"
        },
        {
          "internalType": "address",
          "name": "operator",
          "type": "address"
        }
      ],
      "name": "isApprovedForAll",
      "outputs": [
        {
          "internalType": "bool",
          "name": "",
          "type": "bool"
        }
      ],
      "stateMutability": "view",
      "type": "function"
    },
    {
      "inputs": [
        {
          "internalType": "address",
          "name": "forwarder",
          "type": "address"
        }
      ],
      "name": "isTrustedForwarder",
      "outputs": [
        {
          "internalType": "bool",
          "name": "",
          "type": "bool"
        }
      ],
      "stateMutability": "view",
      "type": "function"
    },
    {
      "inputs": [
        {
          "internalType": "address",
          "name": "account",
          "type": "address"
        },
        {
          "internalType": "uint256",
          "name": "id",
          "type": "uint256"
        },
        {
          "internalType": "uint256",
          "name": "amount",
          "type": "uint256"
        }
      ],
      "name": "mint",
      "outputs": [],
      "stateMutability": "nonpayable",
      "type": "function"
    },
    {
      "inputs": [],
      "name": "name",
      "outputs": [
        {
          "internalType": "string",
          "name": "",
          "type": "string"
        }
      ],
      "stateMutability": "view",
      "type": "function"
    },
    {
      "inputs": [],
      "name": "owner",
      "outputs": [
        {
          "internalType": "address",
          "name": "",
          "type": "address"
        }
      ],
      "stateMutability": "view",
      "type": "function"
    },
    {
      "inputs": [],
      "name": "renounceOwnership",
      "outputs": [],
      "stateMutability": "nonpayable",
      "type": "function"
    },
    {
      "inputs": [
        {
          "internalType": "address",
          "name": "from",
          "type": "address"
        },
        {
          "internalType": "address",
          "name": "to",
          "type": "address"
        },
        {
          "internalType": "uint256[]",
          "name": "ids",
          "type": "uint256[]"
        },
        {
          "internalType": "uint256[]",
          "name": "amounts",
          "type": "uint256[]"
        },
        {
          "internalType": "bytes",
          "name": "data",
          "type": "bytes"
        }
      ],
      "name": "safeBatchTransferFrom",
      "outputs": [],
      "stateMutability": "nonpayable",
      "type": "function"
    },
    {
      "inputs": [
        {
          "internalType": "address",
          "name": "from",
          "type": "address"
        },
        {
          "internalType": "address",
          "name": "to",
          "type": "address"
        },
        {
          "internalType": "uint256",
          "name": "id",
          "type": "uint256"
        },
        {
          "internalType": "uint256",
          "name": "amount",
          "type": "uint256"
        },
        {
          "internalType": "bytes",
          "name": "data",
          "type": "bytes"
        }
      ],
      "name": "safeTransferFrom",
      "outputs": [],
      "stateMutability": "nonpayable",
      "type": "function"
    },
    {
      "inputs": [
        {
          "internalType": "address",
          "name": "operator",
          "type": "address"
        },
        {
          "internalType": "bool",
          "name": "approved",
          "type": "bool"
        }
      ],
      "name": "setApprovalForAll",
      "outputs": [],
      "stateMutability": "nonpayable",
      "type": "function"
    },
    {
      "inputs": [
        {
          "internalType": "uint256",
          "name": "id",
          "type": "uint256"
        },
        {
          "internalType": "string",
          "name": "_metadata",
          "type": "string"
        }
      ],
      "name": "setTokenUri",
      "outputs": [],
      "stateMutability": "nonpayable",
      "type": "function"
    },
    {
      "inputs": [
        {
          "internalType": "address",
          "name": "_trustedForwarder",
          "type": "address"
        }
      ],
      "name": "setTrustedForwarder",
      "outputs": [],
      "stateMutability": "nonpayable",
      "type": "function"
    },
    {
      "inputs": [
        {
          "internalType": "bytes4",
          "name": "interfaceId",
          "type": "bytes4"
        }
      ],
      "name": "supportsInterface",
      "outputs": [
        {
          "internalType": "bool",
          "name": "",
          "type": "bool"
        }
      ],
      "stateMutability": "view",
      "type": "function"
    },
    {
      "inputs": [],
      "name": "symbol",
      "outputs": [
        {
          "internalType": "string",
          "name": "",
          "type": "string"
        }
      ],
      "stateMutability": "view",
      "type": "function"
    },
    {
      "inputs": [
        {
          "internalType": "address",
          "name": "_owner",
          "type": "address"
        }
      ],
      "name": "tokenTypesOf",
      "outputs": [
        {
          "internalType": "uint256[]",
          "name": "ids",
          "type": "uint256[]"
        }
      ],
      "stateMutability": "view",
      "type": "function"
    },
    {
      "inputs": [
        {
          "internalType": "address",
          "name": "_owner",
          "type": "address"
        }
      ],
      "name": "tokensOfOwner",
      "outputs": [
        {
          "internalType": "uint256[]",
          "name": "",
          "type": "uint256[]"
        }
      ],
      "stateMutability": "view",
      "type": "function"
    },
    {
      "inputs": [
        {
          "internalType": "address",
          "name": "_owner",
          "type": "address"
        }
      ],
      "name": "totalBalance",
      "outputs": [
        {
          "internalType": "uint256",
          "name": "",
          "type": "uint256"
        }
      ],
      "stateMutability": "view",
      "type": "function"
    },
    {
      "inputs": [
        {
          "internalType": "uint256",
          "name": "id",
          "type": "uint256"
        }
      ],
      "name": "totalSupply",
      "outputs": [
        {
          "internalType": "uint256",
          "name": "total_supply",
          "type": "uint256"
        }
      ],
      "stateMutability": "view",
      "type": "function"
    },
    {
      "inputs": [],
      "name": "totalTokenTypes",
      "outputs": [
        {
          "internalType": "uint256",
          "name": "",
          "type": "uint256"
        }
      ],
      "stateMutability": "view",
      "type": "function"
    },
    {
      "inputs": [
        {
          "internalType": "address",
          "name": "_owner",
          "type": "address"
        }
      ],
      "name": "totalTypes",
      "outputs": [
        {
          "internalType": "uint256",
          "name": "",
          "type": "uint256"
        }
      ],
      "stateMutability": "view",
      "type": "function"
    },
    {
      "inputs": [
        {
          "internalType": "address",
          "name": "newOwner",
          "type": "address"
        }
      ],
      "name": "transferOwnership",
      "outputs": [],
      "stateMutability": "nonpayable",
      "type": "function"
    },
    {
      "inputs": [
        {
          "internalType": "uint256",
          "name": "id",
          "type": "uint256"
        }
      ],
      "name": "uri",
      "outputs": [
        {
          "internalType": "string",
          "name": "",
          "type": "string"
        }
      ],
      "stateMutability": "view",
      "type": "function"
    },
    {
      "inputs": [
        {
          "internalType": "string",
          "name": "_metadata",
          "type": "string"
        }
      ],
      "name": "userMint",
      "outputs": [],
      "stateMutability": "nonpayable",
      "type": "function"
    }
  ],
  "bytecode": "0x60806040523480156200001157600080fd5b506040516200298838038062002988833981810160405260408110156200003757600080fd5b81019080805160405193929190846401000000008211156200005857600080fd5b9083019060208201858111156200006e57600080fd5b82516401000000008111828201881017156200008957600080fd5b82525081516020918201929091019080838360005b83811015620000b85781810151838201526020016200009e565b50505050905090810190601f168015620000e65780820380516001836020036101000a031916815260200191505b50604052602001805160405193929190846401000000008211156200010a57600080fd5b9083019060208201858111156200012057600080fd5b82516401000000008111828201881017156200013b57600080fd5b82525081516020918201929091019080838360005b838110156200016a57818101518382015260200162000150565b50505050905090810190601f168015620001985780820380516001836020036101000a031916815260200191505b5060208101604052600081529250620001bc91506301ffc9a760e01b90506200027f565b620001c78162000307565b620001d9636cdb3d1360e11b6200027f565b620001eb6303a24d0760e21b6200027f565b506000620001f862000320565b600580546001600160a01b0319166001600160a01b038316908117909155604051919250906000907f8be0079c531659141344cd1fd0a4f28419497f9722a3daafe3b4186f6b6457e0908290a35080516200025b9060069060208401906200036a565b508151620002719060079060208501906200036a565b505060006008555062000416565b6001600160e01b03198082161415620002df576040805162461bcd60e51b815260206004820152601c60248201527f4552433136353a20696e76616c696420696e7465726661636520696400000000604482015290519081900360640190fd5b6001600160e01b0319166000908152600160208190526040909120805460ff19169091179055565b80516200031c9060049060208401906200036a565b5050565b6000601436108015906200033a57506200033a3362000356565b1562000350575060131936013560601c62000353565b50335b90565b6000546001600160a01b0390811691161490565b828054600181600116156101000203166002900490600052602060002090601f016020900481019282620003a25760008555620003ed565b82601f10620003bd57805160ff1916838001178555620003ed565b82800160010185558215620003ed579182015b82811115620003ed578251825591602001919060010190620003d0565b50620003fb929150620003ff565b5090565b5b80821115620003fb576000815560010162000400565b61256280620004266000396000f3fe608060405234801561001057600080fd5b506004361061018d5760003560e01c8063715018a6116100de578063bd85b03911610097578063e985e9c511610071578063e985e9c5146108cf578063f242432a146108fd578063f2fde38b146109c6578063f5298aca146109ec5761018d565b8063bd85b03914610884578063ce1b815f146108a1578063da742228146108a95761018d565b8063715018a6146107f45780638462151c146107fc5780638da5cb5b146108225780638dfde3391461084657806395d89b411461084e578063a22cb465146108565761018d565b80632eb2c2d61161014b578063572b6c0511610125578063572b6c05146106d757806357f7789e146106fd5780636a05025f146107a85780636eacd398146107ce5761018d565b80632eb2c2d61461037d5780632ff95d8c1461053e5780634e1273f4146105645761018d565b8062fdd58e1461019257806301ffc9a7146101d057806306fdde031461020b5780630e89341c14610288578063156e29f6146102a55780632c9609d5146102d9575b600080fd5b6101be600480360360408110156101a857600080fd5b506001600160a01b038135169060200135610a1e565b60408051918252519081900360200190f35b6101f7600480360360208110156101e657600080fd5b50356001600160e01b031916610a8d565b604080519115158252519081900360200190f35b610213610ab0565b6040805160208082528351818301528351919283929083019185019080838360005b8381101561024d578181015183820152602001610235565b50505050905090810190601f16801561027a5780820380516001836020036101000a031916815260200191505b509250505060405180910390f35b6102136004803603602081101561029e57600080fd5b5035610b3e565b6102d7600480360360608110156102bb57600080fd5b506001600160a01b038135169060208101359060400135610bdf565b005b6102d7600480360360208110156102ef57600080fd5b810190602081018135600160201b81111561030957600080fd5b82018360208201111561031b57600080fd5b803590602001918460018302840111600160201b8311171561033c57600080fd5b91908080601f016020809104026020016040519081016040528093929190818152602001838380828437600092019190915250929550610c47945050505050565b6102d7600480360360a081101561039357600080fd5b6001600160a01b038235811692602081013590911691810190606081016040820135600160201b8111156103c657600080fd5b8201836020820111156103d857600080fd5b803590602001918460208302840111600160201b831117156103f957600080fd5b9190808060200260200160405190810160405280939291908181526020018383602002808284376000920191909152509295949360208101935035915050600160201b81111561044857600080fd5b82018360208201111561045a57600080fd5b803590602001918460208302840111600160201b8311171561047b57600080fd5b9190808060200260200160405190810160405280939291908181526020018383602002808284376000920191909152509295949360208101935035915050600160201b8111156104ca57600080fd5b8201836020820111156104dc57600080fd5b803590602001918460018302840111600160201b831117156104fd57600080fd5b91908080601f016020809104026020016040519081016040528093929190818152602001838380828437600092019190915250929550610c88945050505050565b6101be6004803603602081101561055457600080fd5b50356001600160a01b0316610f8b565b6106876004803603604081101561057a57600080fd5b810190602081018135600160201b81111561059457600080fd5b8201836020820111156105a657600080fd5b803590602001918460208302840111600160201b831117156105c757600080fd5b9190808060200260200160405190810160405280939291908181526020018383602002808284376000920191909152509295949360208101935035915050600160201b81111561061657600080fd5b82018360208201111561062857600080fd5b803590602001918460208302840111600160201b8311171561064957600080fd5b919080806020026020016040519081016040528093929190818152602001838360200280828437600092019190915250929550610fc1945050505050565b60408051602080825283518183015283519192839290830191858101910280838360005b838110156106c35781810151838201526020016106ab565b505050509050019250505060405180910390f35b6101f7600480360360208110156106ed57600080fd5b50356001600160a01b031661113f565b6102d76004803603604081101561071357600080fd5b81359190810190604081016020820135600160201b81111561073457600080fd5b82018360208201111561074657600080fd5b803590602001918460018302840111600160201b8311171561076757600080fd5b91908080601f016020809104026020016040519081016040528093929190818152602001838380828437600092019190915250929550611153945050505050565b610687600480360360208110156107be57600080fd5b50356001600160a01b03166111ca565b6101be600480360360208110156107e457600080fd5b50356001600160a01b0316611269565b6102d761128d565b6106876004803603602081101561081257600080fd5b50356001600160a01b031661132f565b61082a6113ef565b604080516001600160a01b039092168252519081900360200190f35b6101be6113ff565b610213611433565b6102d76004803603604081101561086c57600080fd5b506001600160a01b038135169060200135151561148e565b6101be6004803603602081101561089a57600080fd5b503561157d565b61082a61158f565b6102d7600480360360208110156108bf57600080fd5b50356001600160a01b031661159e565b6101f7600480360360408110156108e557600080fd5b506001600160a01b03813581169160200135166115a7565b6102d7600480360360a081101561091357600080fd5b6001600160a01b03823581169260208101359091169160408201359160608101359181019060a081016080820135600160201b81111561095257600080fd5b82018360208201111561096457600080fd5b803590602001918460018302840111600160201b8311171561098557600080fd5b91908080601f0160208091040260200160405190810160405280939291908181526020018383808284376000920191909152509295506115d5945050505050565b6102d7600480360360208110156109dc57600080fd5b50356001600160a01b03166117a0565b6102d760048036036060811015610a0257600080fd5b506001600160a01b038135169060208101359060400135611899565b60006001600160a01b038316610a655760405162461bcd60e51b815260040180806020018281038252602b8152602001806122d4602b913960400191505060405180910390fd5b5060009081526002602090815260408083206001600160a01b03949094168352929052205490565b6001600160e01b0319811660009081526001602052604090205460ff165b919050565b6006805460408051602060026001851615610100026000190190941693909304601f81018490048402820184019092528181529291830182828015610b365780601f10610b0b57610100808354040283529160200191610b36565b820191906000526020600020905b815481529060010190602001808311610b1957829003601f168201915b505050505081565b60008181526009602090815260409182902080548351601f6002600019610100600186161502019093169290920491820184900484028101840190945280845260609392830182828015610bd35780601f10610ba857610100808354040283529160200191610bd3565b820191906000526020600020905b815481529060010190602001808311610bb657829003601f168201915b50505050509050919050565b610be7611927565b6005546001600160a01b03908116911614610c37576040805162461bcd60e51b81526020600482018190526024820152600080516020612472833981519152604482015290519081900360640190fd5b610c42838383611957565b505050565b60085460010160009081526009602090815260409091208251610c6c9284019061212b565b50610c85610c78611927565b6008546001016001611957565b50565b8151835114610cc85760405162461bcd60e51b81526004018080602001828103825260288152602001806124e46028913960400191505060405180910390fd5b6001600160a01b038416610d0d5760405162461bcd60e51b81526004018080602001828103825260258152602001806123a36025913960400191505060405180910390fd5b610d15611927565b6001600160a01b0316856001600160a01b03161480610d405750610d4085610d3b611927565b6115a7565b610d7b5760405162461bcd60e51b81526004018080602001828103825260328152602001806123c86032913960400191505060405180910390fd5b6000610d85611927565b9050610d95818787878787610f83565b60005b8451811015610e9b576000858281518110610daf57fe5b602002602001015190506000858381518110610dc757fe5b60200260200101519050610e34816040518060600160405280602a8152602001612448602a91396002600086815260200190815260200160002060008d6001600160a01b03166001600160a01b031681526020019081526020016000205461199b9092919063ffffffff16565b60008381526002602090815260408083206001600160a01b038e811685529252808320939093558a1681522054610e6b9082611a32565b60009283526002602090815260408085206001600160a01b038c1686529091529092209190915550600101610d98565b50846001600160a01b0316866001600160a01b0316826001600160a01b03167f4a39dc06d4c0dbc64b70af90fd698a233a518aa5d07e595d983b8c0526c8f7fb8787604051808060200180602001838103835285818151815260200191508051906020019060200280838360005b83811015610f21578181015183820152602001610f09565b50505050905001838103825284818151815260200191508051906020019060200280838360005b83811015610f60578181015183820152602001610f48565b5050505090500194505050505060405180910390a4610f83818787878787611a93565b505050505050565b600080805b6008548111610fba576000610fa58583610a1e565b1115610fb2576001909101905b600101610f90565b5092915050565b606081518351146110035760405162461bcd60e51b81526004018080602001828103825260298152602001806124bb6029913960400191505060405180910390fd5b6000835167ffffffffffffffff8111801561101d57600080fd5b50604051908082528060200260200182016040528015611047578160200160208202803683370190505b50905060005b84518110156111375760006001600160a01b031685828151811061106d57fe5b60200260200101516001600160a01b031614156110bb5760405162461bcd60e51b81526004018080602001828103825260318152602001806122ff6031913960400191505060405180910390fd5b600260008583815181106110cb57fe5b6020026020010151815260200190815260200160002060008683815181106110ef57fe5b60200260200101516001600160a01b03166001600160a01b031681526020019081526020016000205482828151811061112457fe5b602090810291909101015260010161104d565b509392505050565b6000546001600160a01b0390811691161490565b61115b611927565b6005546001600160a01b039081169116146111ab576040805162461bcd60e51b81526020600482018190526024820152600080516020612472833981519152604482015290519081900360640190fd5b60008281526009602090815260409091208251610c429284019061212b565b606060006111d783610f8b565b67ffffffffffffffff811180156111ed57600080fd5b50604051908082528060200260200182016040528015611217578160200160208202803683370190505b5090506000805b60085481116112605760006112338683610a1e565b1115611258578083838151811061124657fe5b60209081029190910101526001909101905b60010161121e565b50909392505050565b600080805b6008548111610fba576112818482610a1e565b9091019060010161126e565b611295611927565b6005546001600160a01b039081169116146112e5576040805162461bcd60e51b81526020600482018190526024820152600080516020612472833981519152604482015290519081900360640190fd5b6005546040516000916001600160a01b0316907f8be0079c531659141344cd1fd0a4f28419497f9722a3daafe3b4186f6b6457e0908390a3600580546001600160a01b0319169055565b6060600061133c83610f8b565b905080611359575050604080516000815260208101909152610aab565b60008167ffffffffffffffff8111801561137257600080fd5b5060405190808252806020026020018201604052801561139c578160200160208202803683370190505b5090506000805b60085481116113e55760006113b88783610a1e565b11156113dd57808383815181106113cb57fe5b60209081029190910101526001909101905b6001016113a3565b5090949350505050565b6005546001600160a01b03165b90565b600080805b600854811161142d5760006114188261157d565b1115611425576001909101905b600101611404565b50905090565b6007805460408051602060026001851615610100026000190190941693909304601f81018490048402820184019092528181529291830182828015610b365780601f10610b0b57610100808354040283529160200191610b36565b816001600160a01b03166114a0611927565b6001600160a01b031614156114e65760405162461bcd60e51b81526004018080602001828103825260298152602001806124926029913960400191505060405180910390fd5b80600360006114f3611927565b6001600160a01b03908116825260208083019390935260409182016000908120918716808252919093529120805460ff191692151592909217909155611537611927565b6001600160a01b03167f17307eab39ab6107e8899845ad3d59bd9653f200f220920489ca2b5937696c318360405180821515815260200191505060405180910390a35050565b6000908152600a602052604090205490565b6000546001600160a01b031690565b610c8581611d12565b6001600160a01b03918216600090815260036020908152604080832093909416825291909152205460ff1690565b6001600160a01b03841661161a5760405162461bcd60e51b81526004018080602001828103825260258152602001806123a36025913960400191505060405180910390fd5b611622611927565b6001600160a01b0316856001600160a01b03161480611648575061164885610d3b611927565b6116835760405162461bcd60e51b815260040180806020018281038252602981526020018061237a6029913960400191505060405180910390fd5b600061168d611927565b90506116ad81878761169e88611d34565b6116a788611d34565b87610f83565b6116f4836040518060600160405280602a8152602001612448602a913960008781526002602090815260408083206001600160a01b038d168452909152902054919061199b565b60008581526002602090815260408083206001600160a01b038b8116855292528083209390935587168152205461172b9084611a32565b60008581526002602090815260408083206001600160a01b03808b168086529184529382902094909455805188815291820187905280518a8416938616927fc3d58168c5ae7397731d063d5bbf3d657854427343f4c083240f7aacaa2d0f6292908290030190a4610f83818787878787611d79565b6117a8611927565b6005546001600160a01b039081169116146117f8576040805162461bcd60e51b81526020600482018190526024820152600080516020612472833981519152604482015290519081900360640190fd5b6001600160a01b03811661183d5760405162461bcd60e51b81526004018080602001828103825260268152602001806123306026913960400191505060405180910390fd5b6005546040516001600160a01b038084169216907f8be0079c531659141344cd1fd0a4f28419497f9722a3daafe3b4186f6b6457e090600090a3600580546001600160a01b0319166001600160a01b0392909216919091179055565b6118a1611927565b6001600160a01b0316836001600160a01b031614806118c757506118c783610d3b611927565b6119025760405162461bcd60e51b815260040180806020018281038252602b8152602001806123fa602b913960400191505060405180910390fd5b61190d838383611eea565b6000918252600a6020526040909120805491909103905550565b60006014361080159061193e575061193e3361113f565b15611952575060131936013560601c6113fc565b503390565b6119728383836040518060200160405280600081525061201d565b6008548211156119825760088290555b6000918252600a60205260409091208054909101905550565b60008184841115611a2a5760405162461bcd60e51b81526004018080602001828103825283818151815260200191508051906020019080838360005b838110156119ef5781810151838201526020016119d7565b50505050905090810190601f168015611a1c5780820380516001836020036101000a031916815260200191505b509250505060405180910390fd5b505050900390565b600082820183811015611a8c576040805162461bcd60e51b815260206004820152601b60248201527f536166654d6174683a206164646974696f6e206f766572666c6f770000000000604482015290519081900360640190fd5b9392505050565b611aa5846001600160a01b0316612125565b15610f8357836001600160a01b031663bc197c8187878686866040518663ffffffff1660e01b815260040180866001600160a01b03168152602001856001600160a01b03168152602001806020018060200180602001848103845287818151815260200191508051906020019060200280838360005b83811015611b33578181015183820152602001611b1b565b50505050905001848103835286818151815260200191508051906020019060200280838360005b83811015611b72578181015183820152602001611b5a565b50505050905001848103825285818151815260200191508051906020019080838360005b83811015611bae578181015183820152602001611b96565b50505050905090810190601f168015611bdb5780820380516001836020036101000a031916815260200191505b5098505050505050505050602060405180830381600087803b158015611c0057600080fd5b505af1925050508015611c2557506040513d6020811015611c2057600080fd5b505160015b611cba57611c316121d2565b80611c3c5750611c83565b60405162461bcd60e51b81526020600482018181528351602484015283518493919283926044019190850190808383600083156119ef5781810151838201526020016119d7565b60405162461bcd60e51b81526004018080602001828103825260348152602001806122786034913960400191505060405180910390fd5b6001600160e01b0319811663bc197c8160e01b14611d095760405162461bcd60e51b81526004018080602001828103825260288152602001806122ac6028913960400191505060405180910390fd5b50505050505050565b600080546001600160a01b0319166001600160a01b0392909216919091179055565b60408051600180825281830190925260609160009190602080830190803683370190505090508281600081518110611d6857fe5b602090810291909101015292915050565b611d8b846001600160a01b0316612125565b15610f8357836001600160a01b031663f23a6e6187878686866040518663ffffffff1660e01b815260040180866001600160a01b03168152602001856001600160a01b0316815260200184815260200183815260200180602001828103825283818151815260200191508051906020019080838360005b83811015611e1a578181015183820152602001611e02565b50505050905090810190601f168015611e475780820380516001836020036101000a031916815260200191505b509650505050505050602060405180830381600087803b158015611e6a57600080fd5b505af1925050508015611e8f57506040513d6020811015611e8a57600080fd5b505160015b611e9b57611c316121d2565b6001600160e01b0319811663f23a6e6160e01b14611d095760405162461bcd60e51b81526004018080602001828103825260288152602001806122ac6028913960400191505060405180910390fd5b6001600160a01b038316611f2f5760405162461bcd60e51b81526004018080602001828103825260238152602001806124256023913960400191505060405180910390fd5b6000611f39611927565b9050611f6981856000611f4b87611d34565b611f5487611d34565b60405180602001604052806000815250610f83565b611fb0826040518060600160405280602481526020016123566024913960008681526002602090815260408083206001600160a01b038b168452909152902054919061199b565b60008481526002602090815260408083206001600160a01b03808a16808652918452828520959095558151888152928301879052815193949093908616927fc3d58168c5ae7397731d063d5bbf3d657854427343f4c083240f7aacaa2d0f6292908290030190a450505050565b6001600160a01b0384166120625760405162461bcd60e51b815260040180806020018281038252602181526020018061250c6021913960400191505060405180910390fd5b600061206c611927565b905061207e8160008761169e88611d34565b60008481526002602090815260408083206001600160a01b03891684529091529020546120ab9084611a32565b60008581526002602090815260408083206001600160a01b03808b16808652918452828520959095558151898152928301889052815190948616927fc3d58168c5ae7397731d063d5bbf3d657854427343f4c083240f7aacaa2d0f6292908290030190a461211e81600087878787611d79565b5050505050565b3b151590565b828054600181600116156101000203166002900490600052602060002090601f01602090048101928261216157600085556121a7565b82601f1061217a57805160ff19168380011785556121a7565b828001600101855582156121a7579182015b828111156121a757825182559160200191906001019061218c565b506121b39291506121b7565b5090565b5b808211156121b357600081556001016121b8565b60e01c90565b600060443d10156121e2576113fc565b600481823e6308c379a06121f682516121cc565b14612200576113fc565b6040513d600319016004823e80513d67ffffffffffffffff816024840111818411171561223057505050506113fc565b8284019250825191508082111561224a57505050506113fc565b503d83016020828401011115612262575050506113fc565b601f01601f191681016020016040529150509056fe455243313135353a207472616e7366657220746f206e6f6e2045524331313535526563656976657220696d706c656d656e746572455243313135353a204552433131353552656365697665722072656a656374656420746f6b656e73455243313135353a2062616c616e636520717565727920666f7220746865207a65726f2061646472657373455243313135353a2062617463682062616c616e636520717565727920666f7220746865207a65726f20616464726573734f776e61626c653a206e6577206f776e657220697320746865207a65726f2061646472657373455243313135353a206275726e20616d6f756e7420657863656564732062616c616e6365455243313135353a2063616c6c6572206973206e6f74206f776e6572206e6f7220617070726f766564455243313135353a207472616e7366657220746f20746865207a65726f2061646472657373455243313135353a207472616e736665722063616c6c6572206973206e6f74206f776e6572206e6f7220617070726f7665644e656564206f70657261746f7220617070726f76616c20666f7220337264207061727479206275726e732e455243313135353a206275726e2066726f6d20746865207a65726f2061646472657373455243313135353a20696e73756666696369656e742062616c616e636520666f72207472616e736665724f776e61626c653a2063616c6c6572206973206e6f7420746865206f776e6572455243313135353a2073657474696e6720617070726f76616c2073746174757320666f722073656c66455243313135353a206163636f756e747320616e6420696473206c656e677468206d69736d61746368455243313135353a2069647320616e6420616d6f756e7473206c656e677468206d69736d61746368455243313135353a206d696e7420746f20746865207a65726f2061646472657373a2646970667358221220c3d943a95f8f90937f4c8c0acd106c77a62845559e30b83cac607083ae63ec0564736f6c63430007060033",
  "linkReferences": {},
  "deployedLinkReferences": {}
}